{
  "address": "0x5FbDB2315678afecb367f032d93F642f64180aa3",
  "abi": [
    {
      "anonymous": false,
      "inputs": [
        {
          "indexed": false,
          "internalType": "uint256",
          "name": "number",
          "type": "uint256"
        }
      ],
      "name": "CountedTo",
      "type": "event"
    },
    {
      "inputs": [],
      "name": "countDown",
      "outputs": [
        {
          "internalType": "uint256",
          "name": "",
          "type": "uint256"
        }
      ],
      "stateMutability": "nonpayable",
      "type": "function"
    },
    {
      "inputs": [],
      "name": "countUp",
      "outputs": [
        {
          "internalType": "uint256",
          "name": "",
          "type": "uint256"
        }
      ],
      "stateMutability": "nonpayable",
      "type": "function"
    },
    {
      "inputs": [],
      "name": "getCount",
      "outputs": [
        {
          "internalType": "uint256",
          "name": "",
          "type": "uint256"
        }
      ],
      "stateMutability": "view",
      "type": "function"
    },
    {
      "inputs": [
        {
          "internalType": "uint256",
          "name": "init",
          "type": "uint256"
        }
      ],
      "name": "initialize",
      "outputs": [],
      "stateMutability": "nonpayable",
      "type": "function"
    },
    {
      "inputs": [],
      "name": "manager",
      "outputs": [
        {
          "internalType": "address",
          "name": "",
          "type": "address"
        }
      ],
      "stateMutability": "view",
      "type": "function"
    }
  ],
  "transactionHash": "0x1aebf24f4c44b99d66fd41595d0f3ad425726b0bb83d05220d985f18d04d2013",
  "args": [],
  "solcInputHash": "ea749f50862469d442b9d1bea0198581",
  "bytecode": "0x608060405234801561001057600080fd5b50610488806100206000396000f3fe608060405234801561001057600080fd5b50600436106100575760003560e01c80630bd8599e1461005c578063481c6a751461007a5780635fcbd5b61461008f578063a87d942c14610097578063fe4b84df1461009f575b600080fd5b6100646100b4565b6040516100719190610404565b60405180910390f35b61008261016c565b60405161007191906102f2565b61006461017b565b6100646101e6565b6100b26100ad3660046102da565b6101ec565b005b60006100ea6040518060400160405280601081526020016f636f756e7455703a20636f756e74203d60801b815250600154610279565b600060015460016100fb919061040d565b905060015481116101275760405162461bcd60e51b815260040161011e906103da565b60405180910390fd5b60018190556040517fa501f5a8ef1a812bff54fb3642cfaec066c351af1716c48a7bdd05e0bb631e679061015c908390610404565b60405180910390a1505060015490565b6002546001600160a01b031681565b60006101b360405180604001604052806012815260200171636f756e74446f776e3a20636f756e74203d60701b815250600154610279565b6000600180546101c39190610425565b905060015481106101275760405162461bcd60e51b815260040161011e90610361565b60015490565b600054610100900460ff1680610205575060005460ff16155b6102215760405162461bcd60e51b815260040161011e9061038c565b600054610100900460ff1615801561024c576000805460ff1961ff0019909116610100171660011790555b6001829055600280546001600160a01b031916331790558015610275576000805461ff00191690555b5050565b610275828260405160240161028f929190610306565b60408051601f198184030181529190526020810180516001600160e01b03166309710a9d60e41b17905280516a636f6e736f6c652e6c6f67602083016000808483855afa5050505050565b6000602082840312156102eb578081fd5b5035919050565b6001600160a01b0391909116815260200190565b6000604082528351806040840152815b818110156103335760208187018101516060868401015201610316565b818111156103445782606083860101525b50602083019390935250601f91909101601f191601606001919050565b60208082526011908201527055696e7432353620756e646572666c6f7760781b604082015260600190565b6020808252602e908201527f496e697469616c697a61626c653a20636f6e747261637420697320616c72656160408201526d191e481a5b9a5d1a585b1a5e995960921b606082015260800190565b60208082526010908201526f55696e74323536206f766572666c6f7760801b604082015260600190565b90815260200190565b600082198211156104205761042061043c565b500190565b6000828210156104375761043761043c565b500390565b634e487b7160e01b600052601160045260246000fdfea264697066735822122013a72e4bec40caf6399e8d9f3634fa74968658220928fb188b9d7b982c7bd1d264736f6c63430008000033",
  "devdoc": {
    "kind": "dev",
    "methods": {},
    "version": 1
  },
  "userdoc": {
    "kind": "user",
    "methods": {},
    "version": 1
  },
  "storageLayout": {
    "storage": [
      {
        "astId": 5,
        "contract": "contracts/Counter.sol:Counter",
        "label": "_initialized",
        "offset": 0,
        "slot": "0",
        "type": "t_bool"
      },
      {
        "astId": 8,
        "contract": "contracts/Counter.sol:Counter",
        "label": "_initializing",
        "offset": 1,
        "slot": "0",
        "type": "t_bool"
      },
      {
        "astId": 53,
        "contract": "contracts/Counter.sol:Counter",
        "label": "count",
        "offset": 0,
        "slot": "1",
        "type": "t_uint256"
      },
      {
        "astId": 55,
        "contract": "contracts/Counter.sol:Counter",
        "label": "manager",
        "offset": 0,
        "slot": "2",
        "type": "t_address"
      }
    ],
    "types": {
      "t_address": {
        "encoding": "inplace",
        "label": "address",
        "numberOfBytes": "20"
      },
      "t_bool": {
        "encoding": "inplace",
        "label": "bool",
        "numberOfBytes": "1"
      },
      "t_uint256": {
        "encoding": "inplace",
        "label": "uint256",
        "numberOfBytes": "32"
      }
    }
  }
}