{
  "address": "0x7E854d2b9833Bc60Aca747E20D6838eE2449740E",
  "abi": [
    {
      "anonymous": false,
      "inputs": [
        {
          "indexed": false,
          "internalType": "uint256",
          "name": "number",
          "type": "uint256"
        }
      ],
      "name": "CountedTo",
      "type": "event"
    },
    {
      "inputs": [],
      "name": "countDown",
      "outputs": [
        {
          "internalType": "uint256",
          "name": "",
          "type": "uint256"
        }
      ],
      "stateMutability": "nonpayable",
      "type": "function"
    },
    {
      "inputs": [],
      "name": "countUp",
      "outputs": [
        {
          "internalType": "uint256",
          "name": "",
          "type": "uint256"
        }
      ],
      "stateMutability": "nonpayable",
      "type": "function"
    },
    {
      "inputs": [],
      "name": "getCount",
      "outputs": [
        {
          "internalType": "uint256",
          "name": "",
          "type": "uint256"
        }
      ],
      "stateMutability": "view",
      "type": "function"
    },
    {
      "inputs": [
        {
          "internalType": "uint256",
          "name": "init",
          "type": "uint256"
        }
      ],
      "name": "initialize",
      "outputs": [],
      "stateMutability": "nonpayable",
      "type": "function"
    }
  ],
  "transactionHash": "0xe0cd97de700fc128089e7014f8cdab0fc311b1c35ce81a1939805410369f9d1a",
  "args": [],
  "solcInputHash": "96d32e74db5de32e04d41ee9359b8606",
  "bytecode": "0x608060405234801561001057600080fd5b50610445806100206000396000f3fe608060405234801561001057600080fd5b506004361061004c5760003560e01c80630bd8599e146100515780635fcbd5b61461006f578063a87d942c14610077578063fe4b84df1461007f575b600080fd5b610059610094565b60405161006691906103c1565b60405180910390f35b61005961014c565b6100596101b7565b61009261008d3660046102ab565b6101bd565b005b60006100ca6040518060400160405280601081526020016f636f756e7455703a20636f756e74203d60801b81525060015461024a565b600060015460016100db91906103ca565b905060015481116101075760405162461bcd60e51b81526004016100fe90610397565b60405180910390fd5b60018190556040517fa501f5a8ef1a812bff54fb3642cfaec066c351af1716c48a7bdd05e0bb631e679061013c9083906103c1565b60405180910390a1505060015490565b600061018460405180604001604052806012815260200171636f756e74446f776e3a20636f756e74203d60701b81525060015461024a565b60006001805461019491906103e2565b905060015481106101075760405162461bcd60e51b81526004016100fe9061031e565b60015490565b600054610100900460ff16806101d6575060005460ff16155b6101f25760405162461bcd60e51b81526004016100fe90610349565b600054610100900460ff1615801561021d576000805460ff1961ff0019909116610100171660011790555b6001829055600280546001600160a01b031916331790558015610246576000805461ff00191690555b5050565b61024682826040516024016102609291906102c3565b60408051601f198184030181529190526020810180516001600160e01b03166309710a9d60e41b17905280516a636f6e736f6c652e6c6f67602083016000808483855afa5050505050565b6000602082840312156102bc578081fd5b5035919050565b6000604082528351806040840152815b818110156102f057602081870181015160608684010152016102d3565b818111156103015782606083860101525b50602083019390935250601f91909101601f191601606001919050565b60208082526011908201527055696e7432353620756e646572666c6f7760781b604082015260600190565b6020808252602e908201527f496e697469616c697a61626c653a20636f6e747261637420697320616c72656160408201526d191e481a5b9a5d1a585b1a5e995960921b606082015260800190565b60208082526010908201526f55696e74323536206f766572666c6f7760801b604082015260600190565b90815260200190565b600082198211156103dd576103dd6103f9565b500190565b6000828210156103f4576103f46103f9565b500390565b634e487b7160e01b600052601160045260246000fdfea2646970667358221220a43947a2a8a5d769c04f469d1c311fdb1dd6a954c7f01afd12532b467387961564736f6c63430008000033",
  "devdoc": {
    "kind": "dev",
    "methods": {},
    "version": 1
  },
  "userdoc": {
    "kind": "user",
    "methods": {},
    "version": 1
  },
  "storageLayout": {
    "storage": [
      {
        "astId": 5,
        "contract": "contracts/Counter.sol:Counter",
        "label": "_initialized",
        "offset": 0,
        "slot": "0",
        "type": "t_bool"
      },
      {
        "astId": 8,
        "contract": "contracts/Counter.sol:Counter",
        "label": "_initializing",
        "offset": 1,
        "slot": "0",
        "type": "t_bool"
      },
      {
        "astId": 53,
        "contract": "contracts/Counter.sol:Counter",
        "label": "count",
        "offset": 0,
        "slot": "1",
        "type": "t_uint256"
      },
      {
        "astId": 55,
        "contract": "contracts/Counter.sol:Counter",
        "label": "manager",
        "offset": 0,
        "slot": "2",
        "type": "t_address"
      }
    ],
    "types": {
      "t_address": {
        "encoding": "inplace",
        "label": "address",
        "numberOfBytes": "20"
      },
      "t_bool": {
        "encoding": "inplace",
        "label": "bool",
        "numberOfBytes": "1"
      },
      "t_uint256": {
        "encoding": "inplace",
        "label": "uint256",
        "numberOfBytes": "32"
      }
    }
  }
}